:100000000C9463000C948B000C948B000C948B006C
:100010000C948B000C948B000C948B000C948B0034
:100020000C948B000C948B000C948B000C948B0024
:100030000C948B000C948B000C948B000C948B0014
:100040000C9459020C948B000C9427020C9401021E
:100050000C948B000C948B000C948B000C948B00F4
:100060000C948B000C948B000000000025002800ED
:100070002B0000000000240027002A0000000000E0
:1000800023002600290004040404040404040202DA
:100090000202020203030303030301020408102007
:1000A0004080010204081020010204081020000012
:1000B0000008000201000003040700000000000027
:1000C0000000A302190511241FBECFEFD8E0DEBF48
:1000D000CDBF12E0A0E0B1E0E0E6FFE002C0059095
:1000E0000D92A434B107D9F722E0A4E4B2E001C034
:1000F0001D92AB3FB207E1F710E0C2E6D0E004C0CA
:100100002197FE010E942505C136D107C9F70E943B
:10011000DB020C94A3070C9400000895CF92DF92A9
:10012000EF92FF920F931F93CF93DF936C017A01AD
:100130008B01C0E0D0E0CE15DF0589F0D8016D91CC
:100140008D01D601ED91FC910190F081E02DC60169
:100150000995892B11F47E0102C02196ECCFC701CD
:10016000DF91CF911F910F91FF90EF90DF90CF9093
:100170000895FC01918D828D981761F0828DDF01C9
:10018000A80FB11D5D968C91928D9F5F9F73928F8A
:1001900090E008958FEF9FEF0895FC01918D828D7F
:1001A000981731F0828DE80FF11D858D90E008954C
:1001B0008FEF9FEF0895FC01918D228D892F90E0A4
:1001C000805C9F4F821B91098F73992708958EE45D
:1001D00092E00E94DB0021E0892B09F420E0822FCD
:1001E0000895FC01848DDF01A80FB11DA35ABF4FF4
:1001F0002C91848D90E001968F739927848FA68926
:10020000B7892C93A089B1898C9180648C93938D4C
:10021000848D981306C00288F389E02D80818F7D3C
:1002200080830895EF92FF920F931F93CF93DF93F4
:10023000EC0181E0888F9B8D8C8D981305C0E88937
:10024000F989808185FD24C0F62E0B8D10E00F5FAB
:100250001F4F0F731127E02E8C8DE8120CC00FB6C4
:1002600007FCFACFE889F989808185FFF5CFCE01B7
:100270000E94F100F1CF8B8DFE01E80FF11DE35AD2
:10028000FF4FF0820B8FEA89FB898081806207C073
:10029000EE89FF896083E889F989808180648083A1
:1002A00081E090E0DF91CF911F910F91FF90EF904F
:1002B0000895CF93DF93EC01888D8823C9F0EA89F4
:1002C000FB89808185FD05C0A889B9898C9186FD4F
:1002D0000FC00FB607FCF5CF808185FFF2CFA8894C
:1002E000B9898C9185FFEDCFCE010E94F100E7CF57
:1002F000DF91CF91089580E090E0892B29F00E9452
:10030000E70081110C94000008953FB7F8948091A4
:10031000490290914A02A0914B02B0914C0226B53D
:10032000A89B05C02F3F19F00196A11DB11D3FBF2D
:10033000BA2FA92F982F8827820F911DA11DB11DBB
:10034000BC01CD0142E0660F771F881F991F4A95B7
:10035000D1F708950E942207EF92FF920F931F9307
:10036000CF93DF93EC017B018A018881998100970B
:1003700029F02A813B8124173507F8F4B8016F5F13
:100380007F4F0E945806009759F0998388831B83FA
:100390000A832C813D81232B81F4FC0110820DC046
:1003A00088819981009711F00E94C00519821882F6
:1003B0001D821C821B821A8207C01D830C83B70119
:1003C000888199810E943007CE01DF91CF911F91E2
:1003D0000F91FF90EF900895FC011182108213821B
:1003E0001282158214826115710551F0FB01019092
:1003F0000020E9F73197AF01461B570B0C94AC0175
:1004000008951F920F920FB60F9211242F933F93CE
:100410004F935F936F937F938F939F93AF93BF930C
:10042000EF93FF938EE492E00E94F100FF91EF9131
:10043000BF91AF919F918F917F916F915F914F91FC
:100440003F912F910F900FBE0F901F9018951F9204
:100450000F920FB60F9211242F938F939F93EF93C8
:10046000FF93E0915E02F0915F028081E09164026F
:10047000F091650282FD12C09081809167028F5FCA
:100480008F7320916802821751F0E0916702F0E0CB
:10049000E25BFD4F958F8093670201C08081FF91E1
:1004A000EF919F918F912F910F900FBE0F901F9002
:1004B00018951F920F920FB60F9211242F933F930E
:1004C0008F939F93AF93BF93809145029091460283
:1004D000A0914702B09148023091440223E0230FDB
:1004E0002D3720F40196A11DB11D05C026E8230F6C
:1004F0000296A11DB11D2093440280934502909362
:100500004602A0934702B09348028091490290911D
:100510004A02A0914B02B0914C020196A11DB11D5F
:100520008093490290934A02A0934B02B0934C02ED
:10053000BF91AF919F918F913F912F910F900FBEDF
:100540000F901F901895EEE4F2E01382128288EE6D
:1005500093E0A0E0B0E084839583A683B78384E230
:1005600092E09183808385EC90E09587848784EC8A
:1005700090E09787868780EC90E0918B808B81EC70
:1005800090E0938B828B82EC90E0958B848B86EC51
:1005900090E0978B868B118E128E138E148E60E3F3
:1005A00072E081EF92E00E94EC0161E472E08BEE78
:1005B00092E00C94EC01CF93DF93CDB7DEB7CA592C
:1005C000D1090FB6F894DEBF0FBECDBF789484B5C5
:1005D000826084BD84B5816084BD85B5826085BD3F
:1005E00085B5816085BD80916E00816080936E00CD
:1005F00010928100809181008260809381008091BF
:10060000810081608093810080918000816080936F
:1006100080008091B10084608093B1008091B0002F
:1006200081608093B00080917A00846080937A002A
:1006300080917A00826080937A0080917A00816054
:1006400080937A0080917A00806880937A0010927B
:10065000C100E0915E02F0915F0282E08083E09150
:100660005A02F0915B021082E0915C02F0915D020F
:100670008FEC808310926602E0916202F091630237
:1006800086E08083E0916002F09161028081806168
:100690008083E0916002F0916102808188608083B4
:1006A000E0916002F0916102808180688083E09136
:1006B0006002F091610280818F7D8083E7EAF0E043
:1006C000249153E9252E50E0352EF10184918823A1
:1006D000C9F090E0880F991FFC01EE58FF4FA591DB
:1006E000B491FC01E859FF4F459154919FB7F8949C
:1006F0003C91822F809583238C93DA018C91282B57
:100700002C939FBF7E01B9E7EB0EF11CEBEBF0E001
:100710008491E7EAF0E09491F1012491222309F415
:1007200051C0882339F1833091F038F48130A9F039
:10073000823001F584B58F7D12C0873091F088300A
:10074000A1F08430B9F4809180008F7D03C0809146
:1007500080008F77809380000DC084B58F7784BD33
:1007600009C08091B0008F7703C08091B0008F7D69
:100770008093B000E22FF0E0EE0FFF1FE458FF4F30
:10078000A591B4918C919823E9F019C08701065086
:100790001109D8018D919C910E94C005C956DF4F67
:1007A000E881F981C759D0400E171F0781F7CF564E
:1007B000DF4F88819981C159D0400E94C0050E94B5
:1007C0007B01A4CFCF56DF4F19821882C159D04088
:1007D000CD56DF4F19821882C359D040CB56DF4F18
:1007E00019821882C559D0406091F1027091F202CD
:1007F0006115710549F04091F5025091F602CE0164
:100800008F569F4F0E94AC018E010F5F1F4F6801F2
:10081000C956DF4F19830883C759D04062E472E09C
:10082000C6010E94EC01F6E0CF0ED11CCE14DF040D
:10083000A9F7CB56DF4F88819981C559D040C7565B
:10084000DF4F99838883C959D040C12CD12CC7561A
:10085000DF4F88819981C959D040C816D9060CF05C
:1008600095CF82EC882E81E0982E96E0A92E91E01B
:10087000B92E8091F5029091F602C816D90630F48F
:10088000E091F102F091F202309729F410924D02BA
:10089000EDE4F2E002C0EC0DFD1DD4018D914D019F
:1008A0009081981386C0F50180819181C557DF4FF3
:1008B00019821882CB58D040C357DF4F1982188253
:1008C000CD58D040C157DF4F19821882CF58D04041
:1008D0004AE0B7010E943707F70101900020E9F7CD
:1008E0003197AF014E195F09B701CE0185579F4F70
:1008F0000E94AC01D8018D919C911197009731F124
:10090000C557DF4F68817981CB58D040611571059B
:10091000D9F012964D915C911397C157DF4F288102
:100920003981CF58D0404217530770F00E943007EA
:10093000C157DF4F88819981CF58D040D801159693
:100940009C938E93149727C00E94C005C557DF4F14
:1009500088819981CB58D040F80191838083C35717
:10096000DF4F88819981CD58D04093838283C157CE
:10097000DF4F88819981CF58D04095838483C557B4
:10098000DF4F19821882CB58D040C357DF4F1982EE
:100990001882CD58D040C157DF4F19821882CF58E6
:1009A000D040C557DF4F88819981CB58D0400E94F5
:1009B000C005F2E0AF0EB11C20E2821622E09206E2
:1009C00009F057CFD80114964D915C9115976D9110
:1009D0007C918EE492E00E948E000E9485012B01A2
:1009E0003C012EE1822E912CA12CB12C0E9485017C
:1009F000DC01CB0184199509A609B709883E93400B
:100A0000A105B10558F0B1E08B1A9108A108B10811
:100A1000E8EE4E0EE3E05E1E611C711C8114910431
:100A2000A104B10419F72FEFC21AD20A0A5F1F4FAF
:100A30000ECF8091EB029091EC020E94C005809154
:100A4000F1029091F2020C94C005EE0FFF1F059089
:100A5000F491E02D0994CF93DF938230910510F447
:100A600082E090E0E091F902F091FA0220E030E0BB
:100A7000C0E0D0E0309711F140815181481759070B
:100A8000C0F04817590761F482819381209719F0CB
:100A90009B838A832BC09093FA028093F90226C02D
:100AA0002115310519F04217530718F49A01BE01B8
:100AB000DF01EF010280F381E02DDCCF211531054C
:100AC00009F1281B390B2430310590F412968D91D1
:100AD0009C9113976115710521F0FB01938382832B
:100AE00004C09093FA028093F902FD01329644C04B
:100AF000FD01E20FF31F81939193225031092D9351
:100B00003C933AC02091F7023091F802232B41F434
:100B100020910201309103013093F8022093F702F3
:100B200020910001309101012115310541F42DB7CB
:100B30003EB74091040150910501241B350BE09113
:100B4000F702F091F802E217F307A0F42E1B3F0B17
:100B50002817390778F0AC014E5F5F4F241735072F
:100B600048F04E0F5F1F5093F8024093F7028193B5
:100B7000919302C0E0E0F0E0CF01DF91CF910895C2
:100B80000F931F93CF93DF93009709F48CC0FC0160
:100B90003297138212820091F9021091FA02011524
:100BA000110581F420813181820F931F2091F7027A
:100BB0003091F8022817390779F5F093F802E0939D
:100BC000F70271C0D80140E050E0AE17BF0750F403
:100BD00012962D913C911397AD012115310509F124
:100BE000D901F3CF9D01DA013383228360817181C2
:100BF000860F971F8217930769F4EC0128813981CA
:100C0000260F371F2E5F3F4F318320838A819B81C0
:100C100093838283452B29F4F093FA02E093F9023F
:100C200042C01396FC93EE931297ED0149915991AE
:100C30009E01240F351FE217F30771F48081918123
:100C4000840F951F029611969C938E9382819381B7
:100C500013969C938E931297E0E0F0E0D8011296E1
:100C60008D919C911397009719F0F8018C01F6CFA4
:100C70008D919C9198012E5F3F4F820F931F209181
:100C8000F7023091F8022817390769F4309729F4F0
:100C90001092FA021092F90202C01382128210938B
:100CA000F8020093F702DF91CF911F910F91089501
:100CB000A0E0B0E0EEE5F6E00C947007EC010097E0
:100CC00021F4CB010E942B05B8C0FC01E60FF71FF1
:100CD0009C0122503109E217F30708F4ACC0D90196
:100CE0000D911C91119706171707B0F005301105EB
:100CF00008F49FC0C80104978617970708F499C0A5
:100D000002501109061B170B019311936D937C93ED
:100D1000CF010E94C0058DC05B01A01AB10A4C0131
:100D2000800E911EA091F902B091FA0240E050E0CD
:100D3000E12CF12C109709F44AC0A815B905D1F59A
:100D40006D907C901197630182E0C80ED11CCA148B
:100D5000DB0480F1A3014A195B096A0182E0C80E35
:100D6000D11C1296BC9012971396AC91B5E0CB169D
:100D7000D10440F0B282A38351834083D9016D93A3
:100D80007C930AC00E5F1F4FC301800F911FF901B2
:100D900091838083EB2DFA2FE114F10431F0D70118
:100DA0001396FC93EE93129744C0F093FA02E093EB
:100DB000F9023FC08D919C9111974817590708F48B
:100DC000AC017D0112960D90BC91A02DB3CF809106
:100DD000F7029091F80288159905E1F44617570734
:100DE000C8F48091000190910101009741F48DB702
:100DF0009EB74091040150910501841B950BE817A3
:100E0000F907C8F4F093F802E093F702F90171834F
:100E100060830FC0CB010E942B057C01009759F025
:100E2000A801BE010E942707CE010E94C005C7018C
:100E300004C0CE0102C080E090E0CDB7DEB7EEE0A6
:100E40000C948C0781E090E0F8940C94A307FB01CC
:100E5000DC0102C001900D9241505040D8F7089536
:100E6000FB01DC0101900D920020E1F70895BB2702
:100E70004A3031F4992322F4BDE2909581959F4F39
:100E80000C944307BB27FB015527AA27880F991FFE
:100E9000AA1FA41710F0A41B83955051B9F7A05DA9
:100EA000AA3308F0A95DA193009779F7B111B19326
:100EB0001192CB010C945C07DC01FC01672F71914E
:100EC0007723E1F7329704C07C916D937083629130
:100ED000AE17BF07C8F308952F923F924F925F92CB
:100EE0006F927F928F929F92AF92BF92CF92DF923A
:100EF000EF92FF920F931F93CF93DF93CDB7DEB79F
:100F0000CA1BDB0B0FB6F894DEBF0FBECDBF099432
:100F10002A88398848885F846E847D848C849B8489
:100F2000AA84B984C884DF80EE80FD800C811B8197
:100F3000AA81B981CE0FD11D0FB6F894DEBF0FBEC6
:100F4000CDBFED01089510E0C2E6D0E004C0FE017F
:100F50000E9425052196C336D107C9F7F894FFCF23
:100F60000000FB02800000000100020003000400FA
:100F7000050006000700080009000A000B000C002D
:100F80000D000E000F0010001100120013001400DD
:100F9000150016001700180019001A001B001C008D
:100FA0001D001E001F00200021002200230024003D
:100FB000250026002700280029002A002B002C00ED
:100FC0002D002E002F00300031003200330034009D
:100FD000350036003700380039003A003B003C004D
:100FE0003D003E003F0040004100420043004400FD
:100FF000450046004700480049004A004B004C00AD
:101000004D004E004F00500051005200530054005C
:10101000550056005700580059005A005B005C000C
:101020005D0030313233343536373839414243444C
:1010300045464748494A4B4C4D4E4F5051525354E8
:1010400055565758595A6162636465666768696A9C
:101050006B6C6D6E6F707172737475767778797A68
:10106000607E21402324255E262A28292D5F2B3DE2
:101070005B5D7B7D7C3B3A223C3E2F3F2E2C275CE8
:101080000000000012018E00DB00B900CD00590104
:10109000525550505F4D593030325F4C315F4F4E9A
:0410A0000033000019
:00000001FF
