:100000000C9463000C948B000C948B000C948B006C
:100010000C948B000C948B000C948B000C948B0034
:100020000C948B000C948B000C948B000C948B0024
:100030000C948B000C948B000C948B000C948B0014
:100040000C94E1020C948B000C94AF020C94890286
:100050000C948B000C948B000C948B000C948B00F4
:100060000C948B000C948B000000000025002800ED
:100070002B0000000000240027002A0000000000E0
:1000800023002600290004040404040404040202DA
:100090000202020203030303030301020408102007
:1000A0004080010204081020010204081020000012
:1000B0000008000201000003040700000000000027
:1000C00000002B030F0611241FBECFEFD8E0DEBFC8
:1000D000CDBF11E0A0E0B1E0E4E8F1E102C005909D
:1000E0000D92A837B107D9F723E0A8E7B1E001C026
:1000F0001D92AB31B207E1F710E0C2E6D0E004C0D8
:100100002197FE010E943006C136D107C9F70E942F
:100110008F030C94B5080C9400002FB7F8948091CD
:10012000800190918101A0918201B09183012FBF44
:1001300080938C0190938D01A0938E01B0938F01D9
:10014000E0918401F09185010680F781E02D84E83B
:1001500091E0099597FF26C02FB7F8948091800110
:1001600090918101A0918201B09183012FBF4091B4
:100170008C0150918D0160918E0170918F01841BD3
:10018000950BA60BB70B40918801509189016091A6
:100190008A0170918B0184179507A607B70780F233
:1001A0008FEF9FEF08950895CF92DF92EF92FF9225
:1001B0000F931F93CF93DF936C017A018B01C0E003
:1001C000D0E0CE15DF0589F0D8016D918D01D60103
:1001D000ED91FC910190F081E02DC6010995892BEC
:1001E00011F47E0102C02196ECCFC701DF91CF91BF
:1001F0001F910F91FF90EF90DF90CF900895FC0139
:10020000918D828D981761F0828DDF01A80FB11D4D
:100210005D968C91928D9F5F9F73928F90E0089571
:100220008FEF9FEF0895FC01918D828D981731F02B
:10023000828DE80FF11D858D90E008958FEF9FEF7F
:100240000895FC01918D228D892F90E0805C9F4F55
:10025000821B91098F739927089584E891E00E9489
:10026000210121E0892B09F420E0822F0895FC016F
:10027000848DDF01A80FB11DA35ABF4F2C91848D2F
:1002800090E001968F739927848FA689B7892C9364
:10029000A089B1898C9180648C93938D848D9813FF
:1002A00006C00288F389E02D80818F7D80830895C8
:1002B000EF92FF920F931F93CF93DF93EC0181E0B6
:1002C000888F9B8D8C8D981305C0E889F989808172
:1002D00085FD24C0F62E0B8D10E00F5F1F4F0F73AE
:1002E0001127E02E8C8DE8120CC00FB607FCFACF58
:1002F000E889F989808185FFF5CFCE010E94370119
:10030000F1CF8B8DFE01E80FF11DE35AFF4FF08214
:100310000B8FEA89FB898081806207C0EE89FF89A3
:100320006083E889F98980818064808381E090E03E
:10033000DF91CF911F910F91FF90EF900895CF9390
:10034000DF93EC01888D8823C9F0EA89FB898081DD
:1003500085FD05C0A889B9898C9186FD0FC00FB6AF
:1003600007FCF5CF808185FFF2CFA889B9898C91F0
:1003700085FFEDCFCE010E943701E7CFDF91CF910E
:10038000089580E090E0892B29F00E942D018111D1
:100390000C94000008953FB7F894809179019091F2
:1003A0007A01A0917B01B0917C0126B5A89B05C084
:1003B0002F3F19F00196A11DB11D3FBFBA2FA92FE4
:1003C000982F8827820F911DA11DB11DBC01CD0161
:1003D00042E0660F771F881F991F4A95D1F708954D
:1003E0000E942D080F931F93CF93DF93EC01888118
:1003F0009981009729F02A813B812617370788F4D5
:100400008B016F5F7F4F0E946307009761F09983B4
:1004100088831B830A832C813D81232B11F4FC01EB
:10042000108281E001C080E0DF91CF911F910F9198
:100430000895EF92FF920F931F93CF93DF9300D015
:10044000CDB7DEB78C0169831A82FC01E480F580A8
:10045000FFEFEF1AFF0AB7010E94F201882381F033
:10046000F8012081318184819581BE016F5F7F4FCA
:10047000820F931F0E943B08F801F582E48281E01D
:100480000F900F90DF91CF911F910F91FF90EF9000
:100490000895EF92FF920F931F93CF93DF93EC0198
:1004A0007B018A01BA010E94F20128813981811100
:1004B0000DC02115310519F0C9010E94CB06198222
:1004C00018821D821C821B821A8206C01D830C8327
:1004D000B701C9010E943B08CE01DF91CF911F9166
:1004E0000F91FF90EF900895FC011182108213820A
:1004F0001282158214826115710551F0FB01019081
:100500000020E9F73197AF01461B570B0C944902C5
:1005100008951F920F920FB60F9211242F933F93BD
:100520004F935F936F937F938F939F93AF93BF93FB
:10053000EF93FF9384E891E00E943701FF91EF91E0
:10054000BF91AF919F918F917F916F915F914F91EB
:100550003F912F910F900FBE0F901F9018951F92F3
:100560000F920FB60F9211242F938F939F93EF93B7
:10057000FF93E0919401F09195018081E0919A01BF
:10058000F0919B0182FD12C0908180919D018F5F4F
:100590008F7320919E01821751F0E0919D01F0E050
:1005A000EC57FE4F958F80939D0101C08081FF9194
:1005B000EF919F918F912F910F900FBE0F901F90F1
:1005C00018951F920F920FB60F9211242F933F93FD
:1005D0008F939F93AF93BF938091800190918101FE
:1005E000A0918201B09183013091780123E0230F23
:1005F0002D3720F40196A11DB11D05C026E8230F5B
:100600000296A11DB11D20937801809380019093E3
:100610008101A0938201B09383018091790190912F
:100620007A01A0917B01B0917C010196A11DB11DC1
:100630008093790190937A01A0937B01B0937C0120
:10064000BF91AF919F918F913F912F910F900FBECE
:100650000F901F901895CF93DF93109287011092FF
:10066000860188EE93E0A0E0B0E08093880190934B
:100670008901A0938A01B0938B0188E691E0909361
:1006800085018093840185EC90E0909391018093A3
:10069000900184EC90E0909393018093920180EC20
:1006A00090E0909395018093940181EC90E0909379
:1006B00097018093960182EC90E09093990180934A
:1006C000980186EC90E090939B0180939A011092A0
:1006D0009D0110929E0110929F011092A001CFE9FE
:1006E000D2E066E771E0CE010E947402269683E0B4
:1006F000C731D807B1F7C7E2D2E066E771E0CE01B3
:100700000E947402269682E0CF39D807B1F766E7D7
:1007100071E081E292E0DF91CF910C947402CF936B
:10072000DF93CDB7DEB7A0970FB6F894DEBF0FBE4C
:10073000CDBF789484B5826084BD84B5816084BD6A
:1007400085B5826085BD85B5816085BD80916E006F
:10075000816080936E0010928100809181008260A0
:1007600080938100809181008160809381008091DD
:1007700080008160809380008091B10084608093CC
:10078000B1008091B00081608093B00080917A00C8
:10079000846080937A0080917A00826080937A00EE
:1007A00080917A00816080937A0080917A008068DD
:1007B00080937A001092C100E7EAF0E02491E3E927
:1007C000F0E084918823C9F090E0880F991FFC0124
:1007D000EE58FF4FA591B491FC01E859FF4F4591A8
:1007E00054919FB7F8943C91822F809583238C93EA
:1007F000DA018C91282B2C939FBFE0919401F0910A
:10080000950182E08083E0919001F0919101108246
:10081000E0919201F09193018FEC808310929C0102
:10082000E0919801F091990186E08083E091960132
:10083000F0919701808180618083E0919601F09131
:100840009701808188608083E0919601F091970103
:10085000808180688083E0919601F091970180818A
:100860008F7D808383E090E0A0E0B0E080938801FA
:1008700090938901A0938A01B0938B018E010F5F41
:100880001F4F84E891E00E942101892B09F454C094
:1008900066E771E0C8010E9474020E948D0097FD16
:1008A00005C0682FC8010E941902F7CFC0907E01D1
:1008B000D0907F0126E02C9DC0012D9D900D11242C
:1008C000FC01E156FD4F7F0180819181009779F015
:1008D00069817A816115710541F0428153812D81D1
:1008E0003E814217530708F04CC10E94CB0686E0B8
:1008F0008C9DF0018D9DF00D1124E156FD4F8981F5
:100900009A81918380838B819C81938382838D8163
:100910009E81958384831A8219821C821B821E8287
:100920001D8289819A810E94CB06FFEFCF1ADF0AD0
:10093000D0927F01C0927E01EBEBF0E08491E7EA78
:10094000F0E09491E3E9F0E02491222309F423C13B
:10095000882339F1833091F038F48130A9F0823066
:1009600001F584B58F7D12C0873091F08830A1F0F9
:100970008430B9F4809180008F7D03C08091800025
:100980008F77809380000DC084B58F7784BD09C0B8
:100990008091B0008F7703C08091B0008F7D8093ED
:1009A000B000E22FF0E0EE0FFF1FE458FF4FA591DB
:1009B000B4918C91982309F4EEC0E0C0D7018D91D9
:1009C0009C91009709F4EEC00E944208FB01EA5F87
:1009D000FE4F608181E292E00E941902BFEFCB1AC4
:1009E000DB0AE6E0EE0EF11C80917E0190917F0122
:1009F000C816D9061CF31E8A1D8A188E1F8A1A8EE5
:100A0000198E60912102709122026115710541F0E9
:100A10004091250250912602CE0145960E9449023E
:100A200084E1D8011D928A95E9F7298D3A8D390123
:100A3000B1E06B1A71084D895E8980E090E0E12C8D
:100A4000F12C681679060CF0B1C097012F5F3F4F6B
:100A50003C8F2B8FF901EE0FFF1FE00FF11F71820A
:100A6000608237E2232E32E0332E580161011E8E60
:100A70001D8E80E090E0812C912C3FEF831A930A29
:100A8000F501228133812615370521F441E050E03C
:100A90005E8F4D8F52E0A50EB11C40805180480EF4
:100AA000591E8D8D9E8D280F391F421653060CF44A
:100AB0009AC0D60114964D915C9115976D917C91D9
:100AC00084E891E00E94D40042E050E064E771E0E5
:100AD00084E891E00E94D400B6E0CB0ED11C81E006
:100AE00090E0E814F9044CF6E12CF12C40E050E0E1
:100AF00066E771E0C1010E944902EFEFEE1AFE0ABB
:100B0000F6E02F0E311C2B8D3C8D2E153F0574F712
:100B10008D899E890E94CB0640E050E066E771E037
:100B200081E292E00E94490210927F0110927E01C0
:100B30000E94CB014B015C0198ECC92ED12CE12C19
:100B4000F12C0E94CB01DC01CB0188199909AA097B
:100B5000BB09883E9340A105B10558F031E0C31AA6
:100B6000D108E108F10848EE840E43E0941EA11C70
:100B7000B11CC114D104E104F10419F70E94C101B0
:100B800080CE0E943B088D819E81D70115969C9353
:100B90008E931497C4CE8FE9E82E82E0F82EC12CF4
:100BA000D12C22CF60E070E0CB0110CF82179307E9
:100BB00018F44115510529F410927D01EDE7F1E09B
:100BC00003C0FA01E80FF91F60816F3551F4EFEFB0
:100BD000EE1AFE0AF701EE0FFF1FE00FF11F9183DF
:100BE000808301962ECF898D9A8D4816590620F460
:100BF000ED89FE89309729F410927D01EDE7F1E04F
:100C000002C0E40DF51D6081C6012F8F38A30E943C
:100C100019029FEF491A590A38A12F8D46CFCF9359
:100C2000DF9380912102909122020E94CB06CFE9AE
:100C3000D2E02697888199810E94CB0682E0C73254
:100C4000D807B9F7C7E1D3E02697888199810E9438
:100C5000CB0682E0CF39D807B9F7DF91CF9108955D
:100C6000EE0FFF1F0590F491E02D0994CF93DF93D1
:100C70008230910510F482E090E0E0911903F09148
:100C80001A0320E030E0C0E0D0E0309711F140815D
:100C9000518148175907C0F04817590761F48281FC
:100CA0009381209719F09B838A832BC090931A031A
:100CB0008093190326C02115310519F042175307F7
:100CC00018F49A01BE01DF01EF010280F381E02DEB
:100CD000DCCF2115310509F1281B390B24303105F2
:100CE00090F412968D919C9113976115710521F0E6
:100CF000FB019383828304C090931A0380931903AA
:100D0000FD01329644C0FD01E20FF31F81939193E0
:100D1000225031092D933C933AC020911703309112
:100D20001803232B41F420910201309103013093E9
:100D30001803209317032091000130910101211520
:100D4000310541F42DB73EB74091040150910501A2
:100D5000241B350BE0911703F0911803E217F307FA
:100D6000A0F42E1B3F0B2817390778F0AC014E5F1B
:100D70005F4F2417350748F04E0F5F1F509318033D
:100D8000409317038193919302C0E0E0F0E0CF011C
:100D9000DF91CF9108950F931F93CF93DF93009727
:100DA00009F48CC0FC01329713821282009119035E
:100DB00010911A030115110581F420813181820FF0
:100DC000931F20911703309118032817390779F5DD
:100DD000F0931803E093170371C0D80140E050E08E
:100DE000AE17BF0750F412962D913C911397AD01A9
:100DF0002115310509F1D901F3CF9D01DA013383C2
:100E0000228360817181860F971F8217930769F48F
:100E1000EC0128813981260F371F2E5F3F4F318328
:100E200020838A819B8193838283452B29F4F093CD
:100E30001A03E093190342C01396FC93EE931297A2
:100E4000ED01499159919E01240F351FE217F307D7
:100E500071F480819181840F951F029611969C9365
:100E60008E938281938113969C938E931297E0E0E8
:100E7000F0E0D80112968D919C911397009719F08C
:100E8000F8018C01F6CF8D919C9198012E5F3F4F18
:100E9000820F931F209117033091180328173907E9
:100EA00069F4309729F410921A031092190302C0C2
:100EB000138212821093180300931703DF91CF91CE
:100EC0001F910F910895A0E0B0E0E9E6F7E00C94DF
:100ED0008208EC01009721F4CB010E943606B8C0CD
:100EE000FC01E60FF71F9C0122503109E217F307BE
:100EF00008F4ACC0D9010D911C9111970617170782
:100F0000B0F00530110508F49FC0C801049786179A
:100F1000970708F499C002501109061B170B01939B
:100F200011936D937C93CF010E94CB068DC05B0122
:100F3000A01AB10A4C01800E911EA0911903B09124
:100F40001A0340E050E0E12CF12C109709F44AC05C
:100F5000A815B905D1F56D907C901197630182E0D9
:100F6000C80ED11CCA14DB0480F1A3014A195B0925
:100F70006A0182E0C80ED11C1296BC90129713969B
:100F8000AC91B5E0CB16D10440F0B282A38351837B
:100F90004083D9016D937C930AC00E5F1F4FC3013C
:100FA000800F911FF90191838083EB2DFA2FE114BB
:100FB000F10431F0D7011396FC93EE93129744C0DD
:100FC000F0931A03E09319033FC08D919C91119700
:100FD0004817590708F4AC017D0112960D90BC9199
:100FE000A02DB3CF80911703909118038815990510
:100FF000E1F446175707C8F4809100019091010170
:10100000009741F48DB79EB74091040150910501BE
:10101000841B950BE817F907C8F4F0931803E093C5
:101020001703F901718360830FC0CB010E9436065C
:101030007C01009759F0A801BE010E943208CE0140
:101040000E94CB06C70104C0CE0102C080E090E040
:10105000CDB7DEB7EEE00C949E0881E090E0F89406
:101060000C94B508FB01DC0102C001900D924150C7
:101070005040D8F70895FB01DC0101900D9200204B
:10108000E1F708951F93FC0199278827BC01E89494
:1010900011911032E9F3193010F01E30C8F31B32F1
:1010A00051F01D3249F4689406C00E946908610F2E
:1010B000711D811D911D119110531A30B0F33EF432
:1010C00090958095709561957F4F8F4F9F4F1F91A1
:1010D0000895592F482F372F262F660F771F881F07
:1010E000991F660F771F881F991F620F731F841F38
:1010F000951F660F771F881F991F08952F923F92A3
:101100004F925F926F927F928F929F92AF92BF9217
:10111000CF92DF92EF92FF920F931F93CF93DF93C3
:10112000CDB7DEB7CA1BDB0B0FB6F894DEBF0FBE20
:10113000CDBF09942A88398848885F846E847D846D
:101140008C849B84AA84B984C884DF80EE80FD806F
:101150000C811B81AA81B981CE0FD11D0FB6F894E5
:10116000DEBF0FBECDBFED01089510E0C2E6D0E0B6
:1011700004C0FE010E9430062196C336D107C9F78C
:04118000F894FFCF11
:1011840000001B03800030313233343536373839B0
:101194004142434445464748494A4B4C4D4E4F50C3
:1011A4005152535455565758595A6162636465668F
:1011B4006768696A6B6C6D6E6F7071727374757643
:1011C4007778797A607E21402324255E262A28298F
:1011D4002D5F2B3D5B5D7B7D7C3B3A223C3E2F3F6C
:1011E4002E2C275C000000005801D4002101FF00D0
:0811F40013019F010D0A000028
:107E0000112484B714BE81FFF0D085E080938100F7
:107E100082E08093C00088E18093C10086E0809377
:107E2000C20080E18093C4008EE0C9D0259A86E02C
:107E300020E33CEF91E0309385002093840096BBD3
:107E4000B09BFECF1D9AA8958150A9F7CC24DD24C4
:107E500088248394B5E0AB2EA1E19A2EF3E0BF2EE7
:107E6000A2D0813461F49FD0082FAFD0023811F036
:107E7000013811F484E001C083E08DD089C08234E0
:107E800011F484E103C0853419F485E0A6D080C0E4
:107E9000853579F488D0E82EFF2485D0082F10E0AE
:107EA000102F00270E291F29000F111F8ED06801E7
:107EB0006FC0863521F484E090D080E0DECF843638
:107EC00009F040C070D06FD0082F6DD080E0C81688
:107ED00080E7D80618F4F601B7BEE895C0E0D1E017
:107EE00062D089930C17E1F7F0E0CF16F0E7DF06D8
:107EF00018F0F601B7BEE89568D007B600FCFDCFD4
:107F0000A601A0E0B1E02C9130E011968C91119780
:107F100090E0982F8827822B932B1296FA010C0160
:107F200087BEE89511244E5F5F4FF1E0A038BF0790
:107F300051F7F601A7BEE89507B600FCFDCF97BE46
:107F4000E89526C08437B1F42ED02DD0F82E2BD052
:107F50003CD0F601EF2C8F010F5F1F4F84911BD097
:107F6000EA94F801C1F70894C11CD11CFA94CF0C13
:107F7000D11C0EC0853739F428D08EE10CD085E9AC
:107F80000AD08FE07ACF813511F488E018D01DD067
:107F900080E101D065CF982F8091C00085FFFCCF94
:107FA0009093C60008958091C00087FFFCCF809118
:107FB000C00084FD01C0A8958091C6000895E0E648
:107FC000F0E098E1908380830895EDDF803219F02E
:107FD00088E0F5DFFFCF84E1DECF1F93182FE3DFCA
:107FE0001150E9F7F2DF1F91089580E0E8DFEE27F6
:047FF000FF270994CA
:027FFE00040479
:0400000300007E007B
:00000001FF
